S01C0000776973756E5F6E6F64655F6D6F6E69746F72696E672E733337F8
S315080060000010002051C00008CB500508CB500508E9
S31508006010CB500508CB500508CB500508CB500508D2
S31508006020CB500508CB500508CB500508CB500508C2
S31508006030CB500508980E0708630A0108CB500508D7
S31508006040CB500508CB500508CB500508CB500508A2
S31508006050CB500508CB500508CB500508CB50050892
S31508006060CB500508CB500508CB500508CB50050882
S31508006070CB500508F5940008D5410508CB5005080E
S31508006080CB500508CB500508CB500508CB50050862
S31508006090CB500508CB500508CB500508CB50050852
S315080060A0CB500508CB500508CB500508CB50050842
S315080060B0E1CB0008CB500508CB500508CB500508A6
S315080060C0CB500508CB500508CB500508CB50050822
S315080060D0C58202085D8E020809E3050805E305087E
S315080060E09985020815E305080DE30508358E0208AB
S315080060F011E30508C18E0208C58F0208CB500508B2
S31508006100CB500508CB500508CB500508CB500508E1
S31508006110CB500508CB500508CB500508CB500508D1
S31508006120CB500508CB500508CB500508CB500508C1
S31508006130CB500508CB500508CB500508CB500508B1
S31508006140CB500508CB500508CB500508CB500508A1
S31508006150CB500508CB500508CB500508CB50050891
S31508006160CB500508CB50050809100108CB50050887
S31508006170CB500508057D0508B96502080DE0050838
S3150800618013E00508CB500508CB500508CB50050889
S31508006190CB500508CB500508CB500508CB50050851
S315080061A019E30508CB5005080000000000000000B0
S315080061B0013800D0FCE770472DE9F0410023154669
S315080061C0C2E900014FF47A7280460F464CF08AFA0B
S315080061D018A3D3E9002304460E46404639464CF038
S315080061E081FA134B80B228815843241A66F10006B7
S315080061F04FF461620023204631464CF073FA4FF49F
S315080062006163C0B2A8725843241A20464FF03C0274
S315080062104FF0000366F100014CF064FAC0B2E87270
S31508006220C0EB0010A4EB80042C73BDE8F08100BF1E
S3150800623080510100005C26050000000000000000F7
S315080062402DE9F04F93B0CDE90A32DDE91C530E93E0
S3150800625053EC102BCDE90801104619468DED060BB7
S315080062601E9E4CF017F880B1DDE906014FF0FF32AB
S31508006270C54B4CF037F840B9DDE906014FF0FF325F
S315080062806FF480134CF010F870B1DDE908019DED4C
S31508006290060B0E9B1E96CDE91C53DDE90A3213B098
S315080062A0BDE8F04F00F088B90022DDE906010023B9
S315080062B04BF0FAFF002800F03381DDE906A303F16D
S315080062C0004BCBF30A5016F48063A0F2FF3008BFE8
S315080062D006250F934BF00CFD9BA3D3E900234BF047
S315080062E071FD9BA3D3E900234BF0B6FBCBF3130454
S315080062F0894644F07F5180460022A44B504641F41B
S3150800630040114BF0A7FB94A3D3E900234BF05AFDA9
S3150800631002460B46404649464BF09EFB4BF0ECFFC7
S3150800632004464BF0E5FC8EA3D3E900238046894654
S315080063304BF048FD0022964B4BF08EFB4BF0DCFFF2
S3150800634089A3D3E900230746494640464BF03AFD60
S315080063508046384689464BF0CBFC85A3D3E9002313
S315080063604BF030FD02460B46404649464BF072FB61
S3150800637002460B46CDE90C234BF024FDDDE90C2340
S3150800638080468946104619464BF066FB0022CDE941
S315080063901001804B404649464BF03EFE00227E4B9C
S315080063A04BF05AFB02460B46404649464BF034FE34
S315080063B000227A4B4BF050FB02460B4640464946B4
S315080063C04BF02AFEDDE90C238046894600204FF073
S315080063D080414BF03FFB02460B46404649464BF090
S315080063E03BFB02460B46DDE910014BF015FE07F2B2
S315080063F0FF3700226A4B4BF02FFB00223B054BF080
S31508006400E1FC52465B46804689464BF06BFF002806
S3150800641040F08980CDE90C8904F16303C72B34BFAA
S315080064200427052731051BD553A3D3E90023504676
S3150800643059464BF04DFF00287FD051A3D3E90023DE
S31508006440504659464BF030FF002876D00027A54223
S31508006450C6BF2C1B04F1FF3500253C4646F4806672
S315080064600E9B9F422CBF4FF00008A3EB070816F0BF
S31508006470020903D0002F18BF4FF000083CB1DDE930
S315080064800C23504659464BF0C7FD82468B46DDE93C
S315080064900601002200234BF007FF10B10BF1004361
S315080064A09B46DDE9080126F40063CDE90183DDE9B1
S315080064B00A324BEC10AB009500F07EF802465FB34B
S315080064C0DDE9091316F0200F00F10105089E0CBF3F
S315080064D065204520B047DDE908010523002205931C
S315080064E00A23002CCDE9023207F1FF374FEAD473AD
S315080064F0B8BF64422A46019304970A9B009456F053
S315080065004CFC0246B9F1000F06D00B9BC41A0B9B34
S315080065101A190E9BA34245D8104613B0BDE8F08F52
S31508006520DDE906ABCDE60022404649461A4B4BF05C
S3150800653073FD013CCDE90C016EE7002D90D00F9B51
S31508006540002B8DD0013D8BE7FB799F501344D33F39
S31508006550B3C8608B288AC63F61436F63A787D23F5B
S3150800656071A379094F930A401655B5BBB16B024022
S31508006570EF39FAFE422EE63F2D431CEBE2361A3F70
S315080065800000000080842E41FFFFEF7F0000F83FE7
S315080065900000E03F00002C400000244000001840A6
S315080065A00000F03F2020DDE90913089DA8470134C3
S315080065B0ADE700BF000000002DE9F04F97B05BEC97
S315080065C010ABDDE92057CDE90501CDE90723504693
S315080065D052465B465946229E4BF05CFE70B9032331
S315080065E0CDE902760193B04B0093DDE90501DDE9BB
S315080065F0072356F0F2FA17B0BDE8F08F4FF0FF32D6
S315080066006FF48013504659464BF04EFE28B10423CA
S31508006610CDE902760193A54BE6E74FF0FF325046E7
S315080066205946A34B4BF05EFE68B1A24A06F0040336
S31508006630002B08BF0322A04B1CBF13460422CDE93A
S3150800664002760192D0E7504693A3D3E90023594630
S315080066504BF048FE38B992A3D3E900235046594671
S315080066604BF022FE68B1DDE90723DDE905014BECB5
S3150800667010ABCDE92176209517B0BDE8F04FFFF7AE
S31508006680DFBD00220023504659464BF00DFE002878
S3150800669000F09A805B465246002000214BF0DAF95A
S315080066A0012382468B46099316F4806400F08E8097
S315080066B0092D40F28E80002430210EABA5F1090287
S315080066C00134202C03F8011BA5EB040901D09442E0
S315080066D0F6D1594650464BF00FFE784B054603EB6C
S315080066E0C90393ED007B8DED0A7B4BF001FB024657
S315080066F00B46504659464BF0ADF9DDE90A234BF0F7
S3150800670061FB02460B46CDE90C234BF01DFE804685
S315080067104BF0DEFA02460B46DDE90C014BF09AF91E
S3150800672002460B46CDE90C230022654B4BF0DAFDF9
S31508006730002851D008F1010840464BF0C9FA024634
S315080067400B46DDE90A014BF0B9FD10B14FF0000820
S315080067500135B9F1000F50D128464BF0C9FA024667
S315080067600B46504659464BF075F90022544B804665
S3150800677089464BF099FD30B1002240464946504BB8
S315080067804BF0B0FD10B1E80700D501350A210EAB74
S315080067901A19202C0AD095FBF1F001FB105530355B
S315080067A002F8015B013405460028F2D106F003021F
S315080067B0012A57D1002F55D0099A12B916F00C0F95
S315080067C000D0013F302245E009906DE74FF00609F9
S315080067D07FE7A94600247CE70022DDE90C01384B57
S315080067E04BF062FD0028B4D1B8F1000F02D018F0C2
S315080067F0010FAED008F10108ABE70A210EAB23441E
S31508006800202C0ED0B8FBF1F001FB1082B8F1090F6D
S3150800681002F1300209F1FF3904F1010403F8012BF2
S3150800682011D83021A1440EAA202CAFD0A14504F1DD
S3150800683001030AD11C4609F158030DEB03092E235F
S3150800684009F8203CA2E78046DAE7A1541C46EBE7A4
S315080068501A550134A74205D9202CF9D1CDE902767B
S315080068600194C1E6202CF9D0099A3AB12D2104F1F8
S3150800687058026A4402F8201C0134EFE7710704D570
S3150800688004F158022B216A44F4E73207E6D504F1ED
S31508006890580220216A44EDE70000000065CDCD418D
S315080068A00000000065CDCDC1873907088B39070878
S315080068B0FFFFEF7F7E3907088339070890390708F5
S315080068C00000E03F0000000070B5A8B02C220021AF
S315080068D01DA865F0CBFF4FF002331F9340F20B1350
S315080068E0814D14ACADF89C300FCD0FC40FCD0FC43D
S315080068F02B687E4923607E4B7E4807930023CDE9AB
S3150800690008330A9322F074FC7B4D286000285BD07C
S31508006910012157F00EFD20B14FF48161774823F02D
S3150800692079FC286857F03CF9754E3070286857F09E
S3150800693039F9744B74491870286822F085FD0446A5
S3150800694000283BD13378714E5BB9714826F04AFD71
S31508006950306010BB40F23B416E4B6F4A67484CF0C3
S3150800696051F86E4826F03EFD30600028EDD02246EC
S31508006970C189286822F0D8FC01220321286857F02B
S31508006980EBFC33682146586826F0F4FC0446A8B99F
S315080069905F4826F027FD3060C0B1C189002228680B
S315080069A022F0C2FC01220321286857F0D5FC33687F
S315080069B00421586826F0DEFC044638B12346222115
S315080069C00220574A57F0BDFE28B070BD07F092FE68
S315080069D0544A04ABCDE904010393A2F1080113F864
S315080069E0010B02F8010D9142F9D10622FF210BA8ED
S315080069F065F03CFF0622FF210DF1320065F036FFF7
S31508006A00182200210EA865F031FF08220EA903A856
S31508006A1065F09FFF41F234231C22002120A8ADF81F
S31508006A202C3065F023FF28681DA922F0E9FE0446EC
S31508006A300028C3D13C49286857F038F8044600288E
S31508006A40BCD13A49286857F01BF804460028B5D146
S31508006A503749286819F01AFB04460028AED120A346
S31508006A60D3E90023CDE90023286857F021F8044626
S31508006A700028A3D12F4A3049286857F0DDFC044680
S31508006A8000289BD1012022F0FFFB00289CD0A023E0
S31508006A902A4A07A8D3802A4A136007F031FF294BF0
S31508006AA0186020B940F28441274B1B4A56E7274A0B
S31508006AB02749284828F002F9264841F061FE214670
S31508006AC0254814AA07F0D0FF244B186000287FF445
S31508006AD07BAF4FF49261224B0F4A3FE7AFF300803A
S31508006AE0488D01C10340000080EE0808B9D20208AB
S31508006AF0E7E40808A41400203C71002007E0080811
S31508006B001FCB00201ECB002007001100F4600020D8
S31508006B1019F60508FCE408086CED080803F60508EC
S31508006B204AE5080828CB00207CEE08087AEE080813
S31508006B3040710020BC16002034610020C4140020D7
S31508006B4090710020A071002014E5080830E50808B7
S31508006B507DD502085C71002029E40208A87100208E
S31508006B6039E50808000000002DE9F74305465C4CA6
S31508006B70222110205B4A57F0E4FD182229462046B8
S31508006B8065F0E7FEA27B584BDFF8A4911A70E37C08
S31508006B90002289F800300023CDE90023534D002256
S31508006BA04FF40073286856F083FF18B1012003B02C
S31508006BB0BDE8F0834E4B4F4F1B787BB94E4826F005
S31508006BC011FC04463C60F4B902204C4A222157F0D5
S31508006BD0B8FD01224A4B21201A70E8E7494B4A4C76
S31508006BE01A884A4B286853F82210494A8B6821604C
S31508006BF03B6019F0B1FB2268464B946824221B8837
S31508006C0002FB0344DEE7444B1C603F4BD3F800808D
S31508006C10B8F1000F07D000232420D8F80C108B42B7
S31508006C2008D1002623E040F2DF613C4B3C4A3D4850
S31508006C304BF0E8FED8F8086000FB0366F269527864
S31508006C40120912F00E0F3DD0052A3BD80022F18911
S31508006C5028683E6022F068FB01220321286857F065
S31508006C607BFB314A002192F9000026F0B9FC1AA3F1
S31508006C70D3E90023CDE90023286856F019FFD8F890
S31508006C800830B34210D0D989002228683B6022F028
S31508006C904BFB01220321286857F05EFB234A042197
S31508006CA092F9000026F09CFC99F800303C601B091C
S31508006CB013F00E0F08D027F097F9012026F03CFEB6
S31508006CC0002074E70133AAE701220721286857F054
S31508006CD067FC0028EFD069E7488D01C10342000030
S31508006CE0F8600020CEE7080815CB00203C7100208C
S31508006CF019CB0020F460002085D40208EAE70808CA
S31508006D0016CB00208E780020E8600020681000204E
S31508006D10F5D402088C780020F060002026E80808E0
S31508006D201AEC080807E00808D0180020D118002037
S31508006D3014CB00200348044B834202D0034B03B113
S31508006D40184770474C2300204C2300200000000001
S31508006D50064B0749C91A891048BF0131491003D0A3
S31508006D60044B0BB101481847704700BF4C2300205D
S31508006D704C2300200000000010B5064C237843B9C8
S31508006D80FFF7D8FF044B13B10448AFF30080012383
S31508006D90237010BDAC780020000000002C8B090879
S31508006DA008B5054B1BB105490548AFF30080BDE89A
S31508006DB00840FFF7CDBF00BF000000008842002052
S31508006DC02C8B0908A3F5803A704700BF174B002B98
S31508006DD008BF134B9D46FFF7F5FF00218B460F466C
S31508006DE01348144A121A65F041FD0E4B002B00D0C9
S31508006DF098470D4B002B00D098470020002104002F
S31508006E000D000D48002802D00C48AFF300804CF066
S31508006E1099FA200029004DF07EF94BF019FE00BFC3
S31508006E20000008000000000000000000001000201C
S31508006E304C23002070D30020000000000000000052
S31508006E4008B502F039F90022084BC3E90001084BDE
S31508006E50C3E90001074B08491A8000220023C1E94B
S31508006E6000230649C1E9002308BD00BFC823002046
S31508006E70C023002020780020B8230020B02300205B
S31508006E802DE9F0439BB000AF00230446F81CC7E980
S31508006E90013357F002FE18B181B2184817F0DCF832
S31508006EA06A46FB78F81CA2EBC3039D466946E8468A
S31508006EB057F008FE18B181B2114817F0CDF8002630
S31508006EC0FB78F5B2AB4210D908EBC509484607F17D
S31508006ED00C0157F010FEFB6A0136002BF0D158F86A
S31508006EE03500D9F804103B1D03C33B1D03CB2060B6
S31508006EF020466C376160BD46BDE8F083E0CF0608E2
S31508006F0019D0060813B56846FFF7BAFF064C009B6A
S31508006F1006492360019B06486360E379A27902B0BB
S31508006F20BDE8104017F0ACB85D8100204DD00608CA
S31508006F301E8A002030B595B04DF0E6F80FAD024632
S31508006F401549284617F09CF8FFF7DCFF134B144C3D
S31508006F50D3E90A01CDE90C01D3E90801CDE90A0113
S31508006F60D3E90601CDE90801D3E90401CDE9060113
S31508006F70D3E90223CDE904230A4B4FF48061019338
S31508006F80094B20460093094A094B029517F08CF8DD
S31508006F90204615B030BD00BF2FF808085023002042
S31508006FA06D8500201E8A0020D8D0060864D0060801
S31508006FB0268A00202DE9F04FA9B080464DF0A4F8A6
S31508006FC0654C0FAF02466549384617F059F8FFF782
S31508006FD099FF2378052B65D102F06EF8604ADFF831
S31508006FE0B0B1D2E90045041B61EB050529462046E8
S31508006FF002F03CF85949024619A817F041F8DBE9AE
S315080070000001201845EB010102F030F8554E0DF14C
S31508007010780902465149484617F032F8D6E9000180
S3150800702002F024F80DF18C0A02464C49504617F036
S3150800703027F8DBE90032E41845EB02052046294625
S31508007040CDE90A9A4AF088FE0022474B4AF0BAFE72
S3150800705082468B46D6E90001201845EB01014AF025
S315080070607BFE0B460246594650464AF0D5FFCDE907
S3150800707008013E4B1B8806933D4B059319ABCDE99A
S3150800708003733C4B4FF4806102933B4B3B4A01939D
S315080070903B4B3C480093434617F006F8394829B05D
S315080070A0BDE8F08F02F008F8374ADFF8E490D2E935
S315080070B00056451B61EB06062278344914A816F0DB
S315080070C0DFFF3146284601F0D1FF2449024619A8B8
S315080070D016F0D6FFD9E9000101F0C8FFDFF884A051
S315080070E00DF1780B02461D49584616F0C9FFDAE934
S315080070F00001281846EB010101F0B8FF23AB024650
S315080071001649184616F0BCFFD9E9004923AB2046B4
S315080071104946CDE90AB34AF01FFE0022124B4AF04F
S3150800712051FECDE90C01DAE90031E41849EB010119
S31508007130601946EB01014AF00FFE0B460246DDE9EF
S315080071400C014AF069FFCDE90801084B1B88069334
S3150800715019AB059314AB92E76D8900202FF8080840
S31508007160C8230020B02300200000594020780020C2
S31508007170B2D106081E8A0020D8D00608DDD0060837
S31508007180268A00206D850020C0230020B5D1060878
S31508007190B823002037B56049012057F09AFB054609
S315080071A05E495D4804F0D2FD5D4C002D00F09C80E0
S315080071B04FF480615B4A206816F076FF4CF0A4FF16
S315080071C0236802465849002055F007FF4CF09CFFFB
S315080071D022680146544816F03FFF4FF48061534A2F
S315080071E0ABB2206816F060FF0020216855F0F5FE66
S315080071F0206816F031FF4FF480614D4B4D4A2068E8
S3150800720016F052FF4CF080FF2368024646490020DC
S3150800721055F0E3FE4CF078FF22680146424816F026
S315080072201BFF434865F0A2FB434A014640484DF020
S3150800723047FE4249404804F089FD414B4FF48061BE
S315080072405B88404A009320683C4B16F02DFF4CF0B3
S315080072505BFF236802463449002055F0BEFE4CF019
S3150800726053FF22680146304816F0F6FE4FF4806157
S31508007270354B364A206816F017FF4CF045FF236851
S3150800728002462949002055F0A8FE4CF03DFF226829
S315080072900146254816F0E0FE2B4865F067FB2C4AA8
S315080072A0014629484DF00CFE2A49294804F04EFDAE
S315080072B0294B4FF480615B88284A00932068254B48
S315080072C016F0F2FE4CF020FF23680246164900200D
S315080072D055F083FE4CF018FF22680146124816F056
S315080072E0BBFE284603B030BD4FF480610B4B1C4AE9
S315080072F0206816F0D9FE4CF007FF236802460A49B3
S31508007300284655F06AFE4CF0FFFE226801460648FC
S3150800731016F0A2FE6FE700BF4D81002025810020F0
S31508007320444300200C310708C9D10608D1D1060804
S3150800733031D206083ED20608CC420020D58000206D
S31508007340C442002059D2060880D206088DD2060803
S31508007350B0420020AD800020A8420020A9D206082D
S315080073600ED2060870B5FFF715FF0322022100208A
S3150800737057F0F4F94D4A411C03464D4C106023D191
S315080073804FF480614B4A206816F08EFE4CF0BCFE26
S31508007390236802464849002055F01FFE4CF0B4FE0B
S315080073A022680146444816F057FE444A4FF4806165
S315080073B0206816F079FE2168002055F00EFE206838
S315080073C016F04AFE012070BD4FF480613C4A2068E1
S315080073D016F06AFE4CF098FE2368024636490020ED
S315080073E055F0FBFD4CF090FE22680146324816F037
S315080073F033FE344B344A02211A600020032257F028
S31508007400ADF9324D421C0346286016D14FF480610F
S31508007410284A206816F048FE4CF076FE2368024695
S315080074202549002055F0D9FD4CF06EFE226801462C
S31508007430214816F011FE264AB8E74FF48061254A1E
S31508007440206816F031FE4CF05FFE236802461A49A2
S31508007450002055F0C2FD4CF057FE2268014616483A
S3150800746016F0FAFD1C4E1D4C1D4B23602B68354645
S3150800747045F8043B0FCC0FC594E8070041F2030317
S3150800748085E8070073843223736242F22A3315486B
S315080074904FF48C71338570634DF039FF7085002089
S315080074A0306386F82000F0638DE700BFA442002011
S315080074B0444300200C310708C9D10608D0D2060873
S315080074C006D30608C44200200000D504A0420020C6
S315080074D037D306086ED3060808100020A8420020F5
S315080074E0000035169FD3060873B52F4D4FF48C71DF
S315080074F0A8634DF00CFFA88505F120004DF03DFB73
S3150800750006464DF023FB0446E8B9284D00964FF48D
S3150800751046734FF48061264A286816F0C5FD4CF07C
S31508007520F3FD2B6802462349204655F056FD4CF0DC
S31508007530EBFD2A6801461F4816F08EFD40F21A3503
S31508007540284602B070BD05F120014DF018FB002851
S315080075501CDA164D40F21D334FF48061164A28682E
S3150800756016F0A2FD4CF0D0FD124902462B68002009
S3150800757055F033FD4CF0C8FD2A6801460D4816F053
S315080075806BFD002520464DF0EDFAD9E71C23019343
S315080075900A4B3246009321460023286822F02CFD28
S315080075A00130EED13125EDE70810002044430020D4
S315080075B0B2D30608C9D10608F2D30608A8420020A5
S315080075C02DE9F04385B005461C469DF830609DF8C8
S315080075D03470002A00F08F80002978D04CF094FD92
S315080075E00146714816F038FD284616F035FD002C80
S315080075F040F09A800124002E3CD02B464FF480613F
S315080076006A4A6B4816F050FD1C230193694BDFF854
S31508007610D091009386B2002332466549D9F8000016
S3150800762022F0EAFC013040F0838040F2D543029311
S31508007630614B03960193D9F80030DFF88C810093EB
S315080076404FF480614FF453735C4AD8F8000016F083
S315080076502BFD4CF059FD5A490246D8F80030002057
S3150800766055F0BBFC4CF050FDD8F8002001465448B4
S3150800767016F0F2FC3FB32B464FF480614B4A514853
S3150800768016F012FD83B2B3F58C7F54D94FF48C7380
S315080076904D4D80B20193009040F255334FF480610E
S315080076A04A4A286816F000FD4CF02EFD4449024669
S315080076B02B68002055F091FC4CF026FD2A680146FF
S315080076C03F4816F0C9FC204605B0BDE8F08316F021
S315080076D0C3FC002C8ED00124DFF8EC802A464FF438
S315080076E08061D8F8000016F0DFFCD8F800100020FA
S315080076F055F073FC16E0002B3FF47DAFB1B114468C
S31508007700DFF8C4802A464FF48061D8F8000016F0E6
S31508007710CBFC4CF0F9FCD8F800300246284900208A
S3150800772055F05BFC013466E70124E9E70C46D3E72C
S315080077300134E4B29EE72348FFF7D6FE064610B9A1
S315080077400134E4B2BFE7204D4FF48061204A28682F
S3150800775016F0AAFC4CF0D8FC2B6802461849002003
S3150800776055F03BFC4CF0D0FC2A680146144816F04C
S3150800777073FC41F235630293164BB6B20193164B6E
S3150800778003961B68154A00934FF4806140F25933FB
S31508007790286816F089FC2968002055F01EFC286820
S315080077A016F05AFC8FE700BF2CD406082FF80808F5
S315080077B0AD7C0020C4420020D580002032D40608C3
S315080077C0C9D10608AD7800204443002091D40608A4
S315080077D00C310708AD800020A0420020FDD4060821
S315080077E0A44200202DE9F04387B001F0C7FBC54D40
S315080077F0C54816F031FCC54EC54AC649C648C74CE9
S3150800780016F03EFC64212846C54BC24A16F04CFCCD
S31508007810019500964FF48061BF4BC24A206816F066
S3150800782043FC4CF071FC23680246BF49002055F022
S31508007830D4FB4CF069FC22680146BB4816F00CFCE8
S31508007840BA4B3221BA4A0093BA48BB4B16F02CFC05
S315080078504FF48061B04BB94A206816F025FC4CF00D
S3150800786053FC23680246B049002055F0B6FB4CF09D
S315080078704BFC22680146AC4816F0EEFB33464FF443
S315080078808061AE4A206816F00FFC4CF03DFC236878
S315080078900246A549002055F0A0FB4CF035FC2268AD
S315080078A00146A14816F0D8FB2B464FF48061A34A3F
S315080078B0206816F0F9FB4CF027FC236802469A4923
S315080078C0002055F08AFB4CF01FFC226801469648BA
S315080078D016F0C2FB4FF48061964B984A206816F062
S315080078E0E3FB4CF011FC236802468F49002055F053
S315080078F074FB4CF009FC226801468B4816F0ACFB79
S315080079000121042001F0F6F801222220114601F097
S3150800791019F901220B20114601F014F9012225203C
S31508007920114601F00FF901221D20114601F00AF94E
S31508007930834B4FF48061774A824816F0B5FB4FF4C3
S315080079408061814A206816F0AFFB4CF0DDFB2368A6
S3150800795002467549002055F040FB4CF0D5FB2268DD
S315080079600146714816F078FB4FF48061774A206823
S3150800797016F09AFB4CF0C8FB236802466A490020B9
S3150800798055F02BFB4CF0C0FB22680146664816F002
S3150800799063FB4FF480616E4B6E4A206816F084FBD9
S315080079A04CF0B2FB236802465F49002055F015FBF0
S315080079B04CF0AAFB226801465B4816F04DFB4FF4D3
S315080079C08061634B644A206816F06EFB4CF09CFBA2
S315080079D0236802465449002055F0FFFA4CF094FB00
S315080079E05E4D01462268504816F036FB284657F089
S315080079F03CF8EB79AA795A495A4816F041FB4FF4F4
S31508007A008061584B584A206816F04EFB4CF07CFBB8
S31508007A10236802464449002055F0DFFA4CF074FB0F
S31508007A2022680146404816F017FB5049504816F0A0
S31508007A3027FB4FF480614E4B4E4A206816F034FB04
S31508007A404CF062FB236802463749002055F0C5FA18
S31508007A504CF05AFB22680146334816F0FDFA4649AF
S31508007A608B2003F07BFA01F027FB444B444FC3E914
S31508007A70000156F0E9FF4FF48061424A206816F08B
S31508007A8013FB4CF041FB236802462749002055F0BA
S31508007A90A4FA4CF039FB22680146234816F0DCFAB2
S31508007AA04CF0A0FB0121022001F024F8012222203B
S31508007AB0114601F047F801220B20114601F042F861
S31508007AC001222520114601F03DF801221D2011460C
S31508007AD001F038F8FFF746FC01F096F801F016FBBE
S31508007AE04523294A29492A4816F0B6FA02A9012047
S31508007AF056F0EFFE274816F0AFFA02A804F098F9F8
S31508007B00012449E0BA8900200C31070890D50608F7
S31508007B10D8D006082FF808082E8A002044430020EB
S31508007B2068D5060886D50608C9D10608BAD506084E
S31508007B30A5D506088889002099D506082DD20608F5
S31508007B40D42C07086D810020C3D50608DAD50608A7
S31508007B50F4D5060804D606081CD606086581002052
S31508007B604DD00608268A002034D6060843D60608CD
S31508007B706F8900205BD60608A57C0008D023002064
S31508007B806D8900206BD6060831D2060885D6060808
S31508007B9098D60608DAD606080146344816F070FA6A
S31508007BA041F23362324B3149324816F055FA3248BF
S31508007BB016F052FA41F233622D4B2C492F4816F033
S31508007BC04BFA0A212E4816F047FA41F235622D4B38
S31508007BD02D492E4816F040FA2D4816F03DFA41F286
S31508007BE03562284B28492B4816F036FA2A491F4889
S31508007BF000F0BEFA2948FFF79DF92346224621469A
S31508007C00CDE90044FFF7DCFCDFF894803B78052BD0
S31508007C1029D101F039F94FF0010901F047FB01F0CC
S31508007C204BFA0023B8F8002006460D464AF05AFDDE
S31508007C301A430BD14CB11948FFF7BCF90123CDE91A
S31508007C4000991A461946FFF7BBFC00243046294618
S31508007C503C2200234AF046FD013A1A4308BF012494
S31508007C604CF0CEFAD2E74FF00009D8E7258100207C
S31508007C70F4D60608FDD6060840D7060877D70608BC
S31508007C80AED70608DFD7060880D20608EFD706085B
S31508007C903DD8060878D80608FD800020D42C0708A9
S31508007CA0341600202DE9FF478268BF4DD2B2052A57
S31508007CB02A7000F27681BD4E33889A4200F07181AF
S31508007CC0BB4C00924FF48061BA4A206816F0ECF972
S31508007CD04CF01AFA23680246B749002055F07DF998
S31508007CE04CF012FA22680146B34816F0B5F92F7817
S31508007CF07B1E042B35D801F0DFF902460B46AF4947
S31508007D0001EBC707C7E900232B785F1E51F833201C
S31508007D1001EBC70C01EBC30051F837104068DCF8DB
S31508007D200470521A60EB0701A54800EBC30740F838
S31508007D3033207960CDE900214FF48061A14A20689B
S31508007D4016F0B2F94CF0E0F99B4902462368002088
S31508007D5055F043F94CF0D8F922680146964816F0D2
S31508007D607BF92B78052B7AD1944A9749D2E90A3CB4
S31508007D700A88DFF87C92013292B2012AC9E9003CEE
S31508007D802068924F0A8040F04181CDE9003C4FF4CB
S31508007D9080618F4A16F088F94CF0B6F923680246D6
S31508007DA08549002055F019F94CF0AEF922680146CC
S31508007DB0814816F051F900231A46DFF84482C7E9CC
S31508007DC00032404664F0D2FD824B87B295F80090A7
S31508007DD018804CF099F9C7F580614B467E4A0090A9
S31508007DE008EB070016F060F9276895F800804CF054
S31508007DF08BF943464FF48061774A0090384616F06F
S31508007E0053F94CF081F9236802466B49002055F076
S31508007E10E4F84CF079F922680146674816F01CF92F
S31508007E2002A8FFF72DF86D4F029B6D493B60039B37
S31508007E306C487B60FB79BA7916F022F96A4B1B68A5
S31508007E404BB16A48FFF776F801231A461946CDE979
S31508007E500033FFF7B5FB0121022000F04BFE338803
S31508007E60052B40F09C80554F4FF00009BA46B8469E
S31508007E7001F022F92A7809F101094A45EAE80201DE
S31508007E80F6DA0020DFF838C13B46B968D3F80CE0CB
S31508007E900130D3E90093B1EB09016EEB03034CF80B
S31508007EA0081F824207F10807CCF80430ECDA08EB21
S31508007EB0C20158F832304E4F4A68DFF84881D7E990
S31508007EC00001C8E900321B1A62EB0102CDE9003253
S31508007ED04FF48061474A206816F0E6F84CF014F92A
S31508007EE0236802463449002055F077F84CF00CF91F
S31508007EF022680146304816F0AFF8D8E90032DFF8B4
S31508007F0008C1DFF8FC80DCE900011B1842EB01021E
S31508007F10D7E900105B1A62EB00024046CCE9003252
S31508007F2064F024FD2B4B87B295F8009018804CF02E
S31508007F30EBF8C7F580614B462F4A009008EB07001F
S31508007F4016F0B2F8276895F800804CF0DDF843463D
S31508007F504FF48061284A0090384616F0A5F84CF090
S31508007F60D3F8236802461449002055F036F84CF039
S31508007F70CBF822680146104816F06EF80121042055
S31508007F8000F0B8FD01220321222000F0DBFD0122CA
S31508007F9003211D2000F0D6FD0122184B1A702B78FC
S31508007FA0338004B0BDE8F0876D8900201C78002076
S31508007FB044430020AED80608C9D10608802300200D
S31508007FC050230020C3D8060820780020B0230020BC
S31508007FD0ECD806081E78002029D906085D810020FD
S31508007FE04DD006081E8A0020A4420020D42C07087B
S31508007FF0C823002034D9060851D906086E890020FE
S315080080006D810020C0230020B8230020DFF85880A7
S31508008010D8E900125B1A6CEB0202CDE900324FF484
S3150800802080610F4A16F040F84CF06EF82368024655
S315080080300C49002054F0D1FF4CF066F8226801463E
S31508008040084816F009F8D7E90001D9E900321B18E3
S3150800805042EB0102D8E900105B1A62EB0002ACE6BB
S315080080600DD90608C9D10608C023002084B010B56A
S315080080708CB00EAC84E80F009DF87F30154C0B933E
S315080080809DF87C304FF48061AE3B0A939DF87D30B5
S315080080902046AE3B0993BDF876300F4A0893BDF8E3
S315080080A0743007931B9B06931A9B0593199B04939D
S315080080B0189B0393179B0293169B01939DF8943084
S315080080C00093269B15F0F0FF20460CB0BDE8104043
S315080080D004B070476D8500205CD906082DE9F0418B
S315080080E0AEB016AF0446F81C56F0D7FC18B181B2EC
S315080080F01A4815F0B1FFFB78A3422DD96A46A2EBC0
S31508008100C3039D4616AD2946F81C56F0DBFC18B18C
S3150800811081B2134815F0A0FFDFF850803E1D3146A6
S3150800812005EBC40005EBC40556F0E5FCEB79AA7926
S315080081300C49404615F0A4FF492207F11401684688
S31508008140CDE9134864F005FC96E80F00FFF78EFFAB
S315080081506037BD46BDE8F0810348F9E7E0CF060879
S3150800816019D006084DD00608D42C0708368A0020F0
S3150800817070B50D4604461A4E304615F06DFF19487F
S3150800818015F06AFF41F235622946174815F064FF73
S31508008190164815F061FF2146154815F05DFF15488C
S315080081A015F05AFF2146144815F056FF02F0E2FA78
S315080081B0124815F051FF124815F04EFF114815F0F8
S315080081C04BFF114815F048FF104815F045FF1048B9
S315080081D015F042FF3046BDE8704015F03DBF00BFC0
S315080081E00C31070834DA060868DA060889DA060858
S315080081F09ADA0608DADA0608EEDA060846DB060828
S315080082009CDB0608ECDB060828DC060882DC060888
S31508008210DDDC060830B587B004460C4B0C4D0493DC
S315080082200C4B4FF47A7103930B4B284602930B4B76
S315080082300B4A01930B4B00930B4B15F035FF214668
S31508008240284607B0BDE830404BF040BF888900207B
S315080082503B8E0020BA8900206F89002090D5060839
S315080082601BDD06082E8A0020268A002070B59AB0E3
S3150800827004460DF1170056F010FC00F01DFF00F043
S31508008280F5FE2821024606A815F00EFF00F014FF99
S31508008290104A10AED2E90032C01A61EB020100F0B2
S315080082A0E5FE28210246304615F0FEFE9DF81730F9
S315080082B0094D0293094B0A4ACDE900634FF47A71D6
S315080082C006AB284615F0F0FE214628464BF0FEFE82
S315080082D01AB070BDC82300203B8E00201E8A0020DD
S315080082E093DD060838B50446064D4FF47A712846DC
S315080082F0054B064A15F0D8FE21462846BDE8384003
S315080083004BF0E4BE3B8E0020268A00202FF8080892
S3150800831038B50446064D4FF47A712846054B064A89
S3150800832015F0C2FE21462846BDE838404BF0CEBEC1
S315080083303B8E00202E8A00202FF8080838B5044600
S31508008340064D4FF47A712846054B064A15F0ACFEE1
S3150800835021462846BDE838404BF0B8BE3B8E002083
S3150800836090D506082FF8080838B50446064D4FF488
S315080083707A712846054B064A15F096FE2146284688
S31508008380BDE838404BF0A2BE3B8E00206F89002026
S315080083902FF8080810B59AB08389044653B300210C
S315080083A08269D1548069154901AA4AF055FDE0B1A0
S315080083B0134901A864F0BBFA40B956F0ABFA56F077
S315080083C043FB4BF00FFF00201AB010BD0D4901A862
S315080083D064F0ADFA10B956F09DFAF2E70A4A01AB15
S315080083E04FF47A71094815F05FFE214607484BF0AD
S315080083F06DFEE9E7064B014AF2E700BF2FF80808C9
S31508008400EADD0608F4DD0608FEDD06083B8E0020D8
S31508008410BA89002038B50446064D4FF47A712846C5
S31508008420054B064A15F040FE21462846BDE8384069
S315080084304BF04CBE3B8E0020888900202FF8080898
S3150800844038B5044600F038FE00F010FE064D034627
S315080084504FF47A712846054A15F026FE2146284625
S31508008460BDE838404BF032BE3B8E00202FF8080896
S3150800847038B50446074DFEF745FD4FF47A71284690
S31508008480054B064A15F010FE21462846BDE8384039
S315080084904BF01CBE3B8E00201E8A00202FF80808D1
S315080084A013B50023019383890446B3B10F49806944
S315080084B001AA4AF0D1FC80B19DF80400FFF70EFE30
S315080084C003460B4A4FF47A710A4815F0EDFD21462A
S315080084D008484BF0FBFD02B010BD0DF1030056F045
S315080084E0DCFA9DF80330044AECE700BF6F3309084D
S315080084F02FF808083B8E002013DE060837B5002241
S31508008500838904460C4D01924BB18169CA5480692E
S315080085100A4901AA4AF0A0FC08B1019B2B802B88C6
S31508008520074A4FF47A71074815F0BEFD21460548FB
S315080085304BF0CCFD03B030BD341600206F3309086C
S31508008540404D09083B8E002013B500228389044656
S31508008550019273B18169CA5480690C4901AA4AF02B
S315080085607BFC30B19DF80400094B0121187000F01E
S31508008570C1FA019B074A4FF47A71074815F094FD32
S31508008580214605484BF0A2FD02B010BD6F3309081D
S3150800859042170020404D09083B8E002008B5828905
S315080085A00AB9002008BD0549806964F074F90028F5
S315080085B0F7D1FEF745FC0120F4E700BF26DE0608E2
S315080085C02DE9F04FA7B0834600F076FD3F4D404CAD
S315080085D0D5E90032D4E900679B1B62EB070218183D
S315080085E042EB010100F042FD0DF14809394F024600
S315080085F02821484615F058FDD7E9000100F036FD58
S315080086000DF1700A02462821504615F04DFD00F07E
S3150800861053FDD5E900322668DFF8CC809B1B6668D7
S3150800862062EB0602181842EB010149F095FB00229D
S31508008630294B49F0C7FBCDE9100100F03DFDD5E90E
S315080086400032D7E900575B1942EB0702D4E9005418
S315080086505B1B62EB0402181842EB010149F07CFB34
S3150800866002460B46DDE9100149F0D6FC49F08CFEBE
S3150800867049F050FBCDE90B9ACDE90E01174B1B8843
S315080086800A93174BD3E90A01CDE90801D3E9080192
S31508008690CDE90601D3E90601CDE90401D3E90401D0
S315080086A0CDE902014FF47A71D3E902234046CDE9B8
S315080086B000230C4A15F0F8FC5846FFF76FFF594699
S315080086C040464BF003FD27B0BDE8F08FB8230020E5
S315080086D0C8230020B023002000005940207800203D
S315080086E0502300202CDE06083B8E00202DE9F74F8C
S315080086F0DFF8B4804FF48061294A404615F0D4FC6F
S31508008700064600EB08040DF1070056F0C6F90546C3
S3150800871050B183B2234A2046C6F5806115F0C4FCE1
S31508008720214803B0BDE8F08F9DF807307BB1DFF82C
S3150800873084A0DFF884B09DF807305FFA85F9A4EBCA
S3150800874008064B45C6F5806608D8184A0CE0184A4C
S31508008750C6F58061204615F0A7FCE1E74846FFF715
S31508008760BDFC074610B9124A3146F3E7034652469E
S315080087703146204615F098FC384664F0F7F89DF81F
S3150800878007300444013B994508DAA4EB0801204662
S315080087905A46C1F5806115F087FC01340135CAE7F0
S315080087A0CBDE0608CDDE06083B8A0020B6BC0808E4
S315080087B005DF06082FF808084C3207082DE9F041AE
S315080087C086B000230125039305938A4B8A4E8B4C6A
S315080087D000938B4B68460196029404938DF80C50CF
S315080087E001F078FF30B140F2BA21864B864A8748B5
S315080087F04AF008F9864B874F0093874B6846CDE9C0
S31508008800017404938DF80C5001F064FF20B140F216
S31508008810C2217C4B7C4AEAE7804B6846CDE90037A3
S315080088207F4B029404938DF80C5001F053FF20B14E
S3150800883040F2CA21734B744AD9E77A4B68460093CB
S31508008840794B8DF80C50CDE90134784B049301F03F
S3150800885041FF20B140F2D2216A4B6B4AC7E7744BFD
S31508008860DFF838820093734B6846CDE90184049398
S315080088708DF80C5001F02EFF20B140F2DA21614B41
S31508008880614AB4E76C4B6846CDE900386B4B0294F5
S3150800889004938DF80C5001F01DFF20B140F2E2213F
S315080088A0584B594AA3E7664B6846CDE90038654BED
S315080088B0029404938DF80C5001F00CFF20B140F29D
S315080088C0EA21504B504A92E75F4B6846CDE900369D
S315080088D05E4B029404938DF80C5001F0FBFE20B118
S315080088E040F2F221474B484A81E7594B68460093C4
S315080088F0584B8DF80C50CDE90134574B049301F0D1
S31508008900E9FE20B140F2FA213E4B3F4A6FE7534B4E
S315080089106846CDE90037524B029404938DF80C5003
S3150800892001F0D8FE20B140F20231364B364A5EE7F6
S3150800893001254C4B6846CDE900364B4B029404930F
S315080089408DF80C5001F0C6FE20B140F20A312D4BCD
S315080089502D4A4CE7454B6846CDE90036444B029410
S3150800896004938DF80C5001F0B5FE20B140F24F315A
S31508008970244B254A3BE73F4B3F4F00933F4B684606
S3150800898001933F4B029704938DF80C5001F0A2FE19
S3150800899020B140F289311B4B1B4A28E7394B684600
S315080089A00093394B8DF80C50CDE90137374B0493BA
S315080089B001F090FE20B140F29131124B124A16E7AF
S315080089C0334B6846CDE90036324B029404938DF852
S315080089D00C5001F07FFE20B140F29931094B0A4A4A
S315080089E005E71E220F212C4815F036FB0F2006B08E
S315080089F0BDE8F08108DF060812DF060817DF06085B
S31508008A00158200081CDF060891E006085CDF0608E8
S31508008A106ADF060877DF0608E58200087BDF0608B6
S31508008A201183000886DF060892DF06083D830008E2
S31508008A3096DF060869830008A8DF060895830008FC
S31508008A40BADF060815840008C8DF06086D82000824
S31508008A50D4DF0608E4DF060841840008E9DF0608D3
S31508008A6071840008F8DF0608A184000809E00608F2
S31508008A70C18500081DE0060835E0060831E006084D
S31508008A80FD8400083EE006086DCE08084985000802
S31508008A9054E00608F74005085AE0060892780908DF
S31508008AA000B58BB0FFF78AFE2022002102A863F0EA
S31508008AB0DDFE0B4B41F28832019318230021CDE9E4
S31508008AC00623084801AA05F0CFFF28B95721064B07
S31508008AD0064A074849F096FF0BB05DF804FB00BF4D
S31508008AE0A9E00608E5770008B2E00608D3E006081C
S31508008AF0C5E006082DE9F0410746802088464FF074
S31508008B002DF900240546431C05F8144003F8147093
S31508008B100134232CF8D12946204655F09AFD0646FD
S31508008B20B8F1000F05D003463A462146044815F029
S31508008B3093FA28464FF030F93046BDE8F08100BF79
S31508008B40DCE00608F7B58DF804008DF80510054633
S31508008B500E46012001A9174655F07BFD04462FB1A4
S31508008B60034632462946034815F076FA204603B0EE
S31508008B70F0BD00BF07E1060810B583780446852BCB
S31508008B800CD1164B164A1749186821F0CFFA164B1E
S31508008B901860164803F04CF9154B1860A378832B18
S31508008BA01BD1A068134B104C18602368984214D147
S31508008BB040F2CF420023104955F000FE80B200284B
S31508008BC014BF012200220D4B18800D4B1A7004D1D8
S31508008BD0206855F0DDFD0B4B186010BD54100020C1
S31508008BE058100020E842002050100020F0420020D3
S31508008BF0E44200204C100020249200202278002015
S31508008C0023920020481000202DE9F341874C4FF4A9
S31508008C108061874A206815F047FA4BF075FA236891
S31508008C2002468449002054F0D8F94BF06DFA2268C0
S31508008C300146804815F010FA02220121002055F05D
S31508008C408DFD7D4E03464FF480617C4A3060206876
S31508008C5015F02AFA4BF058FA23680246754900209F
S31508008C6054F0BBF94BF050FA22680146714815F0EA
S31508008C70F3F932687249734B7348B2F1FF3F08BF84
S31508008C800B46724915F0E8F935686A1C0CD105F0EF
S31508008C9095FF4CF055FE2A4601466D4815F0DCF95D
S31508008CA005F08CFF4CF051FEDFF8B0C10023624698
S31508008CB022F8083B674B03F11007154618685968F0
S31508008CC0083303C5BB422A46F7D1634F63493B883D
S31508008CD03068ACF80230624B624D1A6821F060F9D0
S31508008CE05749584B0246B0F1FF3F08BF0B4628606C
S31508008CF05D49554815F0B0F9D5F80080B8F1FF3F41
S31508008D000CD105F05BFF4CF01BFE4246014650486D
S31508008D1015F0A2F905F052FF4CF017FE53498520CD
S31508008D2002F01CF94649474B0246B0F1FF3F08BF1F
S31508008D300B4628604E49444815F08EF9D5F8008050
S31508008D40B8F1FF3F0CD105F039FF4CF0F9FD42466A
S31508008D5001463F4815F080F905F030FF4CF0F5FD67
S31508008D604249832002F0FAF83549364B0246B0F1FB
S31508008D70FF3F08BF0B4628603E49334815F06CF99B
S31508008D80D5F80080B8F1FF3F0CD105F017FF4CF07D
S31508008D90D7FD424601462E4815F05EF905F00EFF4E
S31508008DA04CF0D3FD0021306855F034FD2449254B9D
S31508008DB02860B0F1FF3F08BF0B4602462E492248FD
S31508008DC015F04AF92D686B1C0CD105F0F7FE4CF02E
S31508008DD0B7FD2A4601461E4815F03EF905F0EEFE97
S31508008DE04CF0B3FD254803F023F8254D3A88286052
S31508008DF0009203464FF48061224A206815F054F920
S31508008E004BF082F9236802460A49002054F0E5F837
S31508008E104BF07AF922680146064815F01DF92868CC
S31508008E2002B0BDE8F0414CF0D9B800BF4443002079
S31508008E302CE10608C9D10608541000204FE106089F
S31508008E40A4670908F10809087AE1060866E1060830
S31508008E5088E1060880BD080836160020044300206D
S31508008E60581000204810002097E10608798B000862
S31508008E70A9E1060803E2060857E206080C430020A3
S31508008E80E44200206BE206082DE9FF472B4C2668D2
S31508008E90C6B92B4D4FF480612A4A286815F004F9A3
S31508008EA04BF032F92B6802462749304654F095F8BC
S31508008EB04BF02AF92A680146234815F0CDF82368AD
S31508008EC001332360214F3B78A3B300252368DFF8DD
S31508008ED088900133DFF884A02360B9F800301C4875
S31508008EE00AF8035002F0A4FFDFF87480144EC8F89D
S31508008EF00000CDF808A0B9F800304FF48061CDE93C
S31508008F000003144A2368306815F0CEF84BF0FCF8D5
S31508008F10336802460C49284654F05FF84BF0F4F8DB
S31508008F2032680146084815F097F8D8F800004CF062
S31508008F3055F83D7004B0BDE8F08700BFE042002058
S31508008F40444300209EE20608C9D106082392002061
S31508008F50F0420020B4E2060822780020249200207D
S31508008F60E4420020044AD2E90031013341F100010C
S31508008F70C2E90031704700BFD823002013B517484F
S31508008F8005F0F8FC164B186028B96721154B164AE8
S31508008F90164849F037FD00200021154B154A1A607E
S31508008FA0154BC3E900010BF0D3FC044630B101466A
S31508008FB0124815F051F8204602B010BD0BF06AFDB4
S31508008FC023460146CDE900440D4A0E484EF04BFEB5
S31508008FD004460028EFD001460B48EAE748E40608AD
S31508008FE020430020D8E2060820E40608F5E2060831
S31508008FF04443002006970020D823002008E30608EB
S31508009000658F00082443002033E306082DE9F8435A
S3150800901016469946144A002305460C4649F062FB53
S31508009020214630803C222846002349F05BFB00237A
S3150800903080460F46164628464FF46162214649F097
S3150800904051FB1822002349F04DFB404689F80020C1
S3150800905039463C22002349F045FB089B00201A703C
S31508009060099B1E70BDE8F8838051010010B586B0D3
S315080090700DF11503019305AB00930DF116020DF1E1
S315080090801303FFF7C3FF9DF81530094C02939DF8AB
S315080090901430122101939DF8133020460093054A97
S315080090A0BDF8163015F000F8204606B010BD00BF12
S315080090B0F49600206AE30608D0B50D4C4FF0FF3150
S315080090C020684CF065FB28B14F210A4B0A4A0B4829
S315080090D049F098FC0A4B2068D3E900674CF08CFBF2
S315080090E018B15521074B084AF1E730463946D0BD35
S315080090F0204300207DE3060803E40608F5E2060897
S31508009100D8230020B9E30608E6E30608F7B5534C6A
S315080091104FF48061524A206814F0C6FF4AF0F4FF03
S31508009120236802464F49002053F057FF4AF0ECFFE8
S31508009130226801464B4814F08FFF03224A49002053
S3150800914055F00CFB494D03464FF48061484A2860A8
S31508009150206814F0A9FF4AF0D7FF23680246414960
S31508009160002053F03AFF4AF0CFFF226801463D48F7
S3150800917014F072FF2A683F493F4B4048B2F1FF3F5F
S3150800918008BF0B463E4914F067FF2E68721C0CD1C7
S3150800919005F014FD4CF0D4FB32460146394814F06C
S315080091A05BFF05F00BFD4CF0D0FB374F00233A462A
S315080091B022F8083B354B03F1100C16461868596817
S315080091C0083303C663453246F7D1314E2E493388F4
S315080091D028687B802F4B304D1A6820F0E1FE254920
S315080091E0254B2860B0F1FF3F08BF0B4602462B49C6
S315080091F0224814F031FF2D686B1C0CD105F0DEFCFB
S315080092004CF09EFB2A4601461E4814F025FF05F041
S31508009210D5FC4CF09AFB224802F00AFE214D328812
S315080092202860009203464FF480611F4A206814F0B4
S315080092303BFF4AF069FF236802460A49002053F0BB
S31508009240CCFE4AF061FF22680146064814F004FF86
S31508009250286803B0BDE8F0404BF0C0BE4443002088
S3150800926058E40608C9D1060802000100601000206B
S3150800927081E40608A4670908F10809087AE10608DE
S3150800928098E4060888E106086C43002080BD0808B3
S3150800929038160020641000205C100020ACE4060894
S315080092A0744300204C430020BEE406082DE9F04331
S315080092B085B0314C2668C6B9304D4FF48061304AC6
S315080092C0286814F0F1FE4AF01FFF2B6802462D4964
S315080092D0304653F082FE4AF017FF2A6801462948AD
S315080092E014F0BAFE236801332360274B274D284E16
S315080092F0284801930095002340F2CF423146006882
S3150800930020F0BEFEDFF894800028C8F800002FDDA4
S31508009310002723683754013305F10800236002F05B
S3150800932087FDDFF87C90154DC9F800000296D8F83D
S3150800933000304FF48061CDE90003174A2368286896
S3150800934014F0B2FE4AF0E0FE2B6802460D49384694
S3150800935053F043FE4AF0D8FE2A680146094814F03D
S315080093607BFED9F8000005B0BDE8F0434BF036BEE9
S3150800937005B0BDE8F08300BF484300204443002001
S31508009380E6E40608C9D10608641000205043002008
S31508009390069B002060100020FEE406085C100020F2
S315080093A04C43002010B5274C04F074FA4CF039F8F9
S315080093B0236F23F0070343F0030323674CF038F8C1
S315080093C0214B00209B6ADB015EBF4FF480321F4BA6
S315080093D09A62D4F8203123F0070343F00203C4F855
S315080093E02031D4F8283123F0070343F00203C4F8E8
S315080093F02831D4F8403123F0030343F00203C4F8BC
S315080094004031D4F8603123F0030343F00203C4F873
S315080094106031D4F8403223F0030343F00203C4F862
S315080094204032D4F8003223F0070343F00203C4F8AD
S315080094300032D4F8083223F0070343F00203C4F8D5
S31508009440083210BD008000500040005A0060005AE3
S3150800945030B59DB0214D08AC0FCD0FC495E80F006F
S3150800946084E80F002C22002111A863F0FFF91C4B99
S315080094700E24109301238DF84530562312930823A2
S315080094801593092317930A234FF4702522460021C2
S315080094900DF11200199363F0E9F9124B08AACDE908
S315080094A002530D238DF810300F4B02A90593202384
S315080094B0069340F20113ADF81C300C4B0C48009390
S315080094C010AB8DF811400AF06FFE044600214FF4E8
S315080094D0E1304BF0EBFD20461DB030BDACED060883
S315080094E00000015B3C00015BD69F002088430020FA
S315080094F04844002001484EF05CBA00BF48440020AA
S31508009500F8B50C46064611462046154655F0E1F9CB
S315080095100746284602F08CFC033C012C054604D974
S3150800952047B13146064814F097FD2846BDE8F8408D
S315080095304BF054BD02463146024814F08DFDF4E75F
S3150800954011F4060831F406080121024B8140186817
S315080095504CF067B8A044002008B5074B4FF0FF3120
S3150800956018684CF015F930B14FF45271034B044AA0
S31508009570044849F047FA08BDA44400203EF406080A
S3150800958080F8060873F4060808B5064B18684CF008
S3150800959033F930B140F24E31034B044A044849F0DE
S315080095A031FA08BDA4440020D5F4060867F8060871
S315080095B073F4060873B5002300220546CDE9002397
S315080095C00BF04EFA6A460BF08DFA00982D4A01996F
S315080095D0D2E90232C01A61EB02012B4ACDE9000139
S315080095E0FCF7EAFD284802F04BFC284B002814BF7C
S315080095F006461E466B68002B41D1AC6814F0010480
S315080096000DD00121224A2348FFF77AFF204802F0AD
S315080096100FFC3146044602461F4814F01DFDAB6890
S315080096209A070DD503211D4A1D48FFF769FF1B48F8
S3150800963002F0FEFB3146044602461A4814F00CFDB9
S31508009640AB685B070DD50421174A1848FFF758FF82
S31508009650154802F0EDFB314604460246144814F05C
S31508009660FBFC20464BF0BAFC30464BF0B7FC6A6868
S315080096701AB11049104814F0EFFC02B070BD00246E
S31508009680EFE700BFF0230020E0230020D42C0708D2
S3150800969007A00020FBF4060802F5060827A000200C
S315080096A022F506082EF5060837A0002056F5060806
S315080096B061F506088BF906088BF50608F7B500224A
S315080096C00023CDE9002344680646344D64B121469B
S315080096D0334814F0C1FC0120FFF736FF0121286842
S315080096E04BF0D8FF03B0F0BD502221462D4863F059
S315080096F0BDF82D4814F0B0FC01212C4A2C48FFF780
S31508009700FFFE2146274A2B48FFF7FAFE02212A4A7E
S315080097102A48FFF7F5FE0321294A2A48FFF7F0FEF3
S31508009720294A04212948FFF7EBFE0BF099F96A4606
S315080097300BF0D8F9DDE90017254BD3E908208A187C
S3150800974047EB000C9868C3E90017121AD868C3E9F2
S3150800975002176CEB0000C3E908209A6A1D4801321B
S315080097609A62D3E90623891A67EB0303CDE9001346
S315080097704FF47A73B1FBF3F114F06EFC2046FFF751
S31508009780E3FE022128684BF085FF7268002AA9D0FB
S315080097901149124814F060FCA4E700BFA044002059
S315080097A0A5F50608F79F0020C7F5060807A00020BC
S315080097B0FBF40608D4F5060817A00020DFF506080E
S315080097C027A00020EDF5060837A00020FCF50608BE
S315080097D0F02300200DF606086EF906088BF5060834
S315080097E0F7B50023002205461548CDE9002314F0F5
S315080097F033FC0BF035F96A460BF074F9DDE9001015
S31508009800104BD3E904248A18D3E9067640EB0404FE
S31508009810D21B64EB0604C3E90424C3E90010C3E9B8
S3150800982006106A681AB10849084814F015FC0120A0
S31508009830FFF78AFE0022064B1A7003B0F0BD00BF80
S3150800984016F60608F02300204EF906088BF50608DA
S31508009850F69F002010B50F490446A1F1280054F0E0
S31508009860EFFF18B90C490D4814F0F6FB0220FFF774
S315080098706BFE0120FFF768FE094B012118684BF0C3
S3150800988009FF62682AB1BDE810400649064814F087
S31508009890E3BB10BD904400206844002026F6060865
S315080098A0A04400202BF906088BF5060841680148F4
S315080098B014F0D2BB4DF6060810B50B4B044680686B
S315080098C01870C0B202F0CAFA014618B1A268074871
S315080098D014F0C2FB62682AB1BDE810400449054885
S315080098E014F0BABB10BD00BFF69F002079F6060833
S315080098F00DF906088BF5060842681AB102490348AD
S3150800990014F0AABB704700BFF4F806088BF50608E2
S3150800991042681AB10249034814F09EBB704700BF5B
S31508009920D2F806088BF5060808B50C4805F022F8A3
S315080099300B4B186030B940F29F110A4B0A4A0B4884
S3150800994049F060F80A4804F0DBFF0A4B186020B9B2
S315080099504FF4D171084B044AF1E708BDE0F906084F
S31508009960A444002091F60608BBF8060873F4060816
S31508009970D0F90608A0440020A7F6060808B50B4645
S3150800998001460348032200684BF0A5FEC00F08BD38
S31508009990A044002010B5FFF7DFFD034B1C78FFF746
S315080099A0F3FD204610BD00BFF69F002010B500212C
S315080099B0254B13F8012B0AB989B203E00131B1F539
S315080099C0006FF6D1013102201F4A89B254F0B3FF65
S315080099D0044628B91D4B13F8012B52B9A4B20CE062
S315080099E001461B4814F038FB0B20FFF7ADFD204657
S315080099F010BD0134B4F5006FEDD10134A1B20620D3
S31508009A00124A54F0AFFF044628B9124B13F8012B3B
S31508009A103AB9A4B209E001460F4814F01DFB0C2020
S31508009A20E3E70134B4F5006FF0D10134A1B20120A7
S31508009A30084A54F0AEFF04460028D8D00146074825
S31508009A4014F00AFB0D20D0E7CCED060849F006080D
S31508009A50BFF60608FCF20608F5F606082AF7060811
S31508009A6030B5A1B0002300228DF807300023CDE9D8
S31508009A700223FFF771FD382239493A4862F069FF37
S31508009A800DF1070054F0CCFF024618B136493748A5
S31508009A9014F0E2FA9DF8071031B1354814F0DCFAF3
S31508009AA0FFF772FD21B030BD2E4C702204A862F07B
S31508009AB0DDFE94F8210002F0D7F9054694F8230054
S31508009AC055F037F8014618B12A4814F0C5FAE7E701
S31508009AD02946702204A862F03CFF022304A88DF8E8
S31508009AE07A3055F039F8014630B1234814F0B4FA03
S31508009AF00520FFF729FDD3E794F9220054F060FF0B
S31508009B00014620B11D4814F0A7FA0620F1E71C48C3
S31508009B1055F039F8014608B11A48D6E7FFF746FF67
S31508009B200028BDD1204604F1280154F089FE0546D7
S31508009B3080B90AF095FF02AA0AF0D4FFDDE902010E
S31508009B40114BC3E90001C3E90201C3E90601214635
S31508009B500E48BAE70420FFF7F7FC29460C48B4E795
S31508009B60F0F906086844002099F806088BF50608F7
S31508009B705FF706088AF70608B4F70608DFF7060847
S31508009B80F1F3060806F80608F023002035F806085B
S31508009B904CF80608402906D1C378202B08D005D8EA
S31508009BA013F0EF0F04D04FF0FF307047302BFAD187
S31508009BB08078A528F7D8872806D85F2802D013D832
S31508009BC004280AD800207047094B7830C0B2C34031
S31508009BD003F00103013B58B27047413804284FF09F
S31508009BE0FF3098BF0020704780F080000628F6E70F
S31508009BF0B100003F2DE9F04F89B000260F46154603
S31508009C0004469846149B9DF84CA0CDE9063203906D
S31508009C10059000EB0209079B23B90795002E45D14D
S31508009C2000264CE0BAF1080F069B2CD1FF2B26D84C
S31508009C309D42059A23D31A44944220D84A451ED8F1
S31508009C405A1C2146164405A82A464AF0C9FE07901A
S31508009C500028E2D0059B1B781909DED12146069318
S31508009C6005A801234AF0BCFE07AB079000932246DD
S31508009C702B4605A906A84AF0C1FE0028CBD000202D
S31508009C8009B0BDE8F08FBAF10B0FCFD0BAF10F0FBC
S31508009C90CCD0BAF1140FC9D0BAF1110F01D1022BE9
S31508009CA0C5E7BAF1040FC3D1082BC0E7013EB7D008
S31508009CB0FB68B0B29847C8F800000028DFD0129BAE
S31508009CC0AAF1040A1E800123D8F800705FFA8AFBFD
S31508009CD0D8F80020B91AB14201DA079909B90398E8
S31508009CE0CEE76BB90123234903FA0BF30B4204D1E0
S31508009CF013F0900F03D02F2300E026233B70013783
S31508009D00DDF85090BA1A4A44B242B8DCA94503991C
S31508009D10B5D801EB09039C42B1D862199342AED873
S31508009D204A46384662F015FE4B462A46214603A89F
S31508009D304AF056FE034607904F440398002B9FD0DF
S31508009D4003785FEA13199BD10DF1480A4AF8083FD0
S31508009D502146012303A84AF043FE07AB0790009368
S31508009D6022462B46504603A94AF048FE4B46002891
S31508009D70AED084E7012801002DE9F04F8BB081466B
S31508009D800F461D46164622B9002420460BB0BDE8EC
S31508009D90F08F0329F8D90028F6D04AF077FE044652
S31508009DA00028F1D03278314622F03F032B707378C1
S31508009DB002F03002C270837073883A465BBA038138
S31508009DC0331D069306A800234AF00AFE3278079048
S31508009DD002F00F022270CAB1082A6DD82369002B37
S31508009DE06AD19742069967D38B189E4264D8F019B0
S31508009DF0834261D848464AF089FE206100285BD034
S31508009E003A463146237806A84AF0EAFD4FF0000B99
S31508009E10069BDFF8BCA39B1BFB1A0793DDE90632FA
S31508009E20002A00F0D0811A78FF2A0FD19A1BBA426D
S31508009E300ADA1A78FF2A3FD101339E1BBF1BBFB22D
S31508009E40A781002F38D0A361002336E002F00F0364
S31508009E50120931460893099201233A4606A84AF0A0
S31508009E60BFFD07AD07903B463246009506A909A8EF
S31508009E704AF0C4FD00BB099B03EB0B081FFA88F8E0
S31508009E80434519D8C34517D83B463246009506A917
S31508009E9008A8CDF824804AF0B1FD68B9B8F11C0FBE
S31508009EA00DD8B8F1020F07D92AFA08F3DB070CD444
S31508009EB0DDE90725954215D90123637065E7B8F1F1
S31508009EC0230F02D0B8F13C0FF6D1214648464AF096
S31508009ED0E7FD0028F0D0DDE90725AA42ECD3B8F162
S31508009EE0230F4BD8B8F1020FE6D9A8F10303202BAC
S31508009EF0E2D801A151F823F05BA0000829A00008C8
S31508009F00B99E000805A10008AFA0000889A00008AE
S31508009F10B99E0008B99E0008EBA00008A79F000894
S31508009F20B99E0008CD9F000827A10008B99E000821
S31508009F307DA10008B99E0008B99E0008D1A00008B6
S31508009F40B99E0008B99E000839A10008B99E000804
S31508009F50B99E0008B99E00085BA100089FA10008E9
S31508009F60B99E0008B99E0008B99E0008B99E000867
S31508009F70B99E0008B99E0008E59F0008B8F13C0F95
S31508009F809AD1042D98D8D4F81CB09BF80130002B30
S31508009F9092D1012329468BF8013006A84AF012FD12
S31508009FA0CBF8180009E0022D86D86368013383D1FF
S31508009FB0294606A84AF006FD6060069B9B1B9F4241
S31508009FC0FFF47AAFFB1AC346079327E7042D3FF63B
S31508009FD073AF294606A8D4F81CB04AF0F3FCCBF8B0
S31508009FE01400EAE740F209436A1E9A423FF664AF54
S31508009FF0D4F81CB0DBF83030002B7FF45DAF2A466E
S3150800A00048460699ABF804504AF080FDE369CBF858
S3150800A01030001B6B002B3FF44FAF2B463A463146B8
S3150800A02006A84AF0DDFCC8E7E369596B00297FF406
S3150800A03043AF042101910DF1160100910698494696
S3150800A04002953433FFF7D6FD069000283FF434AF67
S3150800A050E369BDF816201A70AFE76B1EFE2B3FF6B4
S3150800A0602BAFD4F81CB0DBF83830002B7FF424AFC4
S3150800A0702A4648460699ABF806504AF047FDE36972
S3150800A080CBF838009B6BC5E7E369D96B00297FF4E9
S3150800A09013AF082101915918029500913C3349469E
S3150800A0A00698FFF7A7FD0690002886D104E7022D3B
S3150800A0B03FF602AFD4F81CB0DBF8203001337FF44A
S3150800A0C0FBAE294606A84AF07DFCCBF8200074E7CB
S3150800A0D0E369196C00297FF4EFAE1421019103F1AD
S3150800A0E00A01029500914033D9E76369002B7FF492
S3150800A0F0E3AE0B23019304F10A030093029504F1DE
S3150800A1001403CCE7022D3FF6D7AED4F81CB0DBF823
S3150800A110243001337FF4D0AE294606A84AF052FC13
S3150800A120CBF8240049E70F21E369019103F10C01FB
S3150800A130029500914433B2E7032D3FF6BDAED4F83D
S3150800A1401CB0DBF82C3001337FF4B6AE294606A8DE
S3150800A1504AF038FCCBF82C002FE7032D3FF6ACAEBF
S3150800A160D4F81CB0DBF8283001337FF4A5AE2946B5
S3150800A17006A84AF027FCCBF828001EE7022D3FF672
S3150800A1809BAED4F81CB0DBF8103001337FF494AEE4
S3150800A190294606A84AF016FCCBF810000DE7042D50
S3150800A1A03FF68AAED4F81CB09BF80230002B7FF439
S3150800A1B083AE012329468BF8023006A84AF002FC32
S3150800A1C0CBF81C00F9E6002B7FF430AE74E600BF2E
S3150800A1D0D8C192182DE9F0410E461746984605460D
S3150800A1E028B121B11AB12C20A847044618B9002471
S3150800A1F02046BDE8F0812C22002162F037FB0123BE
S3150800A200224623710023C4E90467E560C4F8188070
S3150800A21042F81C3F226240F2023222800A22A270D1
S3150800A220014AA3621380E3E72478002008B504F006
S3150800A2301FFB02280DD1074B4FF0FF3118684BF072
S3150800A240A7FA30B14FF42471034B044A044848F086
S3150800A250D9FB08BDA844002028FA0608F8FB06081A
S3150800A2605FFA060808B504F003FB02280BD1064B73
S3150800A27018684BF0C1FA30B14FF42671034B044A03
S3150800A280044848F0BFFB08BDA8440020B9FA0608F0
S3150800A290DEFB06085FFA06082DE9F8430D46174661
S3150800A2A00646D8B1D1B10024DFF83480315D7FB1DC
S3150800A2B0DFF83080DFF830906F1EBC42ACBF4046F6
S3150800A2C04846013413F0C8FEAC4207D0315DF4E7C6
S3150800A2D04046013413F0C0FEA542E7D1BDE8F88335
S3150800A2E064600908D8570908E1FA0608F8B504466B
S3150800A2F017480D46174604F03DFB164B186028B95B
S3150800A3009921154B154A164848F07CFBFFF78EFF36
S3150800A31000F074FB134B144E002C08BF1C46134B5D
S3150800A3201349002D08BF1D4612482B462246B16028
S3150800A3307060F46035613775FFF74CFF3060FFF7E2
S3150800A34091FF00F089F9BDE8F84000F0DFB800BFDA
S3150800A35034FC0608A8440020E9FA060812FC060898
S3150800A3605FFA0608454B0508AC440020494B05082A
S3150800A370654B05084D4B050838B504460D46FFF7ED
S3150800A38055FF064B21462A4653F8140CFFF7F4FCF2
S3150800A3900446FFF767FF204638BD00BFC0440020CB
S3150800A3A038B504460D46FFF741FF054B21462A46B8
S3150800A3B018684AF062F80446FFF754FF204638BD8D
S3150800A3C0AC440020F8B50D460446002867D0FFF7D0
S3150800A3D02DFF334813F040FE2178324813F03CFE37
S3150800A3E06178314813F038FEA178304813F034FE0E
S3150800A3F0E1782F4813F030FE61682E4813F02CFEE2
S3150800A40021892D4813F028FEA1892C4813F024FE33
S3150800A41061892B4813F020FE2A4813F01DFE217887
S3150800A420C9B9294813F018FE284813F015FE6189A2
S3150800A430B9B9254813F010FE254813F00DFEA38977
S3150800A440ABB9244813F008FE234813F005FEBDE80F
S3150800A450F840FFF707BF20692A46FFF71DFF1F4888
S3150800A460E0E760692A46FFF717FF1C48E2E76168DC
S3150800A4701B4F1C4E1C48322914BF3946314613F06F
S3150800A480EBFDA189A0692A46FFF706FF6168164811
S3150800A490322914BF3946314613F0DEFDD4E7F8BD3C
S3150800A4A001FB060804FB060818FB06082EFB06082F
S3150800A4B041FB060854FB06086DFB06087EFB0608EA
S3150800A4C094FB0608ABFB0608D7FB0608B8FB06088C
S3150800A4D0C8FB0608D6FB0608E7DD0608DAFB060809
S3150800A4E0C6FB06080C3107082FF8080810B50446FD
S3150800A4F018B1806908B14AF035FB034B2146BDE81F
S3150800A500104018684AF0E3BAAC44002007B50E4874
S3150800A51004F030FA0D4B186028B9B1210C4B0D4ADE
S3150800A5200D4848F06FFA4FF4F073302200930A2171
S3150800A5300A4B0B484AF0F6FB18B1B921094B054AF4
S3150800A540EEE703B05DF804FB44FD0608BC460020B0
S3150800A550D8FC060828FD060877FC0608DC44002017
S3150800A560C4440020ECFC060870B50646074B1C6977
S3150800A57014B92546284670BD2568802230462968C4
S3150800A58062F089F90028F5D06468F1E7F8460020FA
S3150800A59008B504F06DF902280DD1074B4FF0FF31CD
S3150800A5A018684BF0F5F830B140F28B11034B044AAA
S3150800A5B0044848F027FA08BDB04C002054FD0608A8
S3150800A5C03000070894FD060808B5074B4FF0FF3121
S3150800A5D018684BF0DDF830B14FF4CD71034B044ADF
S3150800A5E0044848F00FFA08BDB04C002054FD060890
S3150800A5F0F0FF060894FD060808B504F039F90228A4
S3150800A6000BD1064B18684BF0F7F830B140F29311AE
S3150800A610034B044A044848F0F5F908BDB04C00203D
S3150800A620F3FD06080D00070894FD060808B5064B55
S3150800A63018684BF0E1F830B14FF4D071034B044A77
S3150800A640044848F0DFF908BDB04C0020F3FD0608C1
S3150800A650D3FF060894FD060807B5134804F08AF9DF
S3150800A660124B186028B9B621114B124A124848F005
S3150800A670C9F94FF434731E21009318220F4B104862
S3150800A6804AF050FB014618B1BE210E4B094AEDE7C8
S3150800A6900D4A0E4804F0E8F918B9C3210C4B054ACF
S3150800A6A0E4E703B05DF804FBC8000708B04C0020D7
S3150800A6B024FE06086100070894FD0608E049002004
S3150800A6C0F8460020ECFC0608A4000708DDA70008E9
S3150800A6D045FE060838B50F4B05461C69FFF758FFB7
S3150800A6E05CB90C484AF033FB70B11822294662F06F
S3150800A6F030F9FFF781FF204609E0236880222968A0
S3150800A700186862F0C8F818B9FFF776FF012038BD57
S3150800A7106468E5E7F84600202DE9F041134B00246C
S3150800A7201D69FFF735FF4FF434720021104862F0B7
S3150800A7309DF818260E4F3DB9FFF75EFF0C48002C12
S3150800A74008BF2846BDE8F0811D2C0DD806FB047805
S3150800A75018224046296862F0FCF824B1631E06FBFD
S3150800A7600373C3F8148001346D68E4E7F8460020E3
S3150800A7701047002038B5084B084D1C69FFF724FF21
S3150800A7801CB9BDE83840FFF751BF23682846196849
S3150800A79013F062FC6468F3E7F84600202DD2060839
S3150800A7A0014813F059BC00BF57FE0608014813F0CC
S3150800A7B053BC00BF86FE0608014813F04DBC00BF17
S3150800A7C0BFFE0608014813F047BC00BFEDFE0608A9
S3150800A7D0014813F041BC00BF20FF06082DE9F04FE1
S3150800A7E085B0002634463546DFF8F4B1DFF800A216
S3150800A7F00396ADF80A6049F0FCFC20B94FF47A706C
S3150800A8004AF0FAFEF7E703220221002053F0A6FFDA
S3150800A810431C074606D14FF4EE716C4B6C4A6D48E3
S3150800A82048F0F0F86C4BDFF8CCC103F1100E624625
S3150800A83018685968083303C273459446F7D11C2231
S3150800A840664B38466649CBF8003003921FF0A8FBE2
S3150800A850013026D0DFF8A08149F0D2FC03ABCDE960
S3150800A86000A34FF480620023414638461FF008FCD7
S3150800A870002840F39180414680B2FFF77DFD0546EA
S3150800A8800028E9D0574813F0E7FB00212846FFF7D0
S3150800A89099FDAB78013B032B08D92846FFF780FFC3
S3150800A8A0DAE740F2E711504B494AB8E7FFF734FFB9
S3150800A8B029460DF10A0200F0E3F8064670B12A4669
S3150800A8C0BDF80A104AF0D1F90446C0BB2846FFF77E
S3150800A8D00DFE2046FFF70AFE30461CE028464AF0E1
S3150800A8E050F9814618B92846FFF760FFB4E7FFF725
S3150800A8F03BFE044648464AF035F97CB123696BB1FC
S3150800A900284698470446D0B92846FFF7EFFD204663
S3150800A910FFF7ECFD20464AF025F99DE784212846F5
S3150800A920FFF73EFD044650B92846FFF7DFFD2046EF
S3150800A930FFF7DCFD20464AF015F926468CE7204647
S3150800A9404AF01BF9B0F5806F8146214603D928469F
S3150800A950FFF732FFBAE740464AF011F9002804DA51
S3150800A96021462846FFF72EFFB0E7204813F074FB70
S3150800A97000212046FFF726FD039B4A46CDE900A3A2
S3150800A9804146002338461FF037FB01309ED1214649
S3150800A9902846FFF71DFF99E701307FF45DAF49F0C0
S3150800A9A028FC00287FF458AF384653F0F1FE4FF4E0
S3150800A9B07A704AF021FE2846FFF798FD2046FFF7F1
S3150800A9C095FD30464AF0CEF815E700BF52FF060857
S3150800A9D05300070894FD060880BD080800003316D2
S3150800A9E0DC46002087FF06086EFF0608ADFF06084E
S3150800A9F0C0460020E446002047A0002037B56C4634
S3150800AA00204601F019FE94E80300024D85E803008C
S3150800AA1003B030BDB44C002048B105490A689042DD
S3150800AA2005D349680A44904201D24DF0B5B970473A
S3150800AA30B44C0020012808D0022814BF02230123A1
S3150800AA402820034A00FB032070470023F8E700BFCD
S3150800AA501801070838B50D4609682C23074A01313D
S3150800AA60044613F021FB031E06DB2A689A4203D329
S3150800AA70D21AE0182A6038BD0020FCE7646009088D
S3150800AA802DE9F04F91B007460C4605920021182291
S3150800AA900AA861F0EBFE27B90026304611B0BDE8DA
S3150800AAA0F08F002CF8D06389013B9BB27F2BF3D83B
S3150800AAB0A378012BF0D120464AF063F802900028CB
S3150800AAC0EAD08022AE4961F0E6FEE3698146002BB2
S3150800AAD000F095805D6C1DB19D89003D18BF01256C
S3150800AAE03E46D6F8008040464AF071F8834670B173
S3150800AAF0DDF83CA0BAF1000F40F084800C204AF043
S3150800AB0025F820B1C0E9008B0F90C0F808A0766937
S3150800AB10002EE6D1B9F1000F40F0DF80002D00F0DD
S3150800AB20D380E3699889013080B24AF00FF8054668
S3150800AB300028B1D0E369B1469A89596C61F009FFDA
S3150800AB40E36980219B892846EE544AF0E0FB8D4C48
S3150800AB508046A346E169002975D0284661F0CCFEF7
S3150800AB600A9000286FD0282303FB09B31C6A0D93AB
S3150800AB700444A54265D8A844444528BF002480213A
S3150800AB8020460A944AF0C3FB0B90002864D101249E
S3150800AB904FF000080220FFF74DFF03900320FFF750
S3150800ABA049FFDDF83CA08146002840F0D180002707
S3150800ABB0059BB8B218809CB90746013080B249F0A7
S3150800ABC0C5FF0997064658B1B8F1000F40F0418114
S3150800ABD080460E9CDFF8B0B1002C40F03E81F4555B
S3150800ABE0BAF1000F40F05A810E98002840F05D81B6
S3150800ABF0284649F0B7FF029849F0B4FF4DE71D46CD
S3150800AC006EE79A46DAF804309B4511D0DAF8083030
S3150800AC10002BF6D10C20039349F098FF00283FF447
S3150800AC2076AF039BC0E9008B8360CAF808006EE71D
S3150800AC305A464146DAF8000061F0EEFD0028E5D1F3
S3150800AC4065E700249BE709F10109B9F1030F04F14F
S3150800AC5028047FF47FAF9AE7002C98D0B94699F874
S3150800AC600C302BB10D9B1B78022B09D0032B28D057
S3150800AC70D9F81490B9F1000FF1D14C46C84611E045
S3150800AC80D9F804000028F3D080220A9961F003FE5F
S3150800AC9080460028ECD148460AA949F0B0FF0128A9
S3150800ACA00446E5D10E9B002B7FF474AF012C3FF4CC
S3150800ACB071AF38460AA949F0C7FF4FF001080446A4
S3150800ACC068E7D9F80800DDE738460AA949F0BCFF65
S3150800ACD0354604464FF00108E4E7802102984AF019
S3150800ACE016FB04460F9DB5B1D5F804904C452DD1F9
S3150800ACF04A462968029861F08FFD38BBB846D8F8ED
S3150800AD00000049F064FF98F80C3053B9D8F814805D
S3150800AD10B8F1000FF3D10E9C0025B4FA84F4640947
S3150800AD2036E78145F2D16A68D8F80010286861F0DC
S3150800AD3073FD82460028E9D140460AA949F05FFF1B
S3150800AD4001280446E2D15546D046ABE7AD68CAE7C6
S3150800AD50039B002B3FF42BAF0120FFF76BFE002867
S3150800AD603FF425AFB8F1000F1BD14746DDF838B0E0
S3150800AD70BBF1000F18D1002F3FF419AF013F17E7B9
S3150800AD80D800070818010708F5000708036A42698A
S3150800AD90134404333B444F6889681F440029F5D19E
S3150800ADA0E4E751460027F9E78021DBF800004AF07E
S3150800ADB0AEFA039B80211A6A0490DBF80400079216
S3150800ADC04AF0A5FAD9F82010079A049B0A440932D2
S3150800ADD006901744DBF8080080211F444AF097FACA
S3150800ADE0069BDBF814B03B441F18C1E7D9F80400EA
S3150800ADF0013080B249F0AAFE044650B9002009A9DC
S3150800AE00FFF728FE8046D9F80890B9F1000FEDD172
S3150800AE10DFE6D9E9001261F09CFDD9F80420039B0E
S3150800AE20DDF824B0A3540BF10101224A234640461B
S3150800AE3013F03AF90490204649F094FE049A002A41
S3150800AE40DCDB9345DAD308EB0200ABEB020209928E
S3150800AE50D5E7D14680460394D7E7A368DDF8249062
S3150800AE60019363685A4600934046236809F1010135
S3150800AE7013F01AF900280EDB81450CD38044A9EBA0
S3150800AE8000000990636923B1404609A9FFF7E2FD6E
S3150800AE9080466469A0E64FF00008F3E7DAF8084050
S3150800AEA0504649F05FFEA2469AE6446949F05AFEC2
S3150800AEB020469AE6EA00070808B5074B4FF0FF3127
S3150800AEC018684AF065FC30B140F27D11034B044A1C
S3150800AED0044847F097FD08BDBC4C0020F801070858
S3150800AEE0D20207089001070808B5064B18684AF009
S3150800AEF083FC30B140F28311034B044A044847F0FF
S3150800AF0081FD08BDBC4C002038020708B1020708BD
S3150800AF109001070838B50B4803F02CFD0A4B18605A
S3150800AF2028B9DC21094B0A4A0A4847F06BFD002478
S3150800AF30094D28190121183400F0BAFFB4F5B47F79
S3150800AF40F7D138BD20030708BC4C00206902070862
S3150800AF50F10207089001070890100020F8B5064688
S3150800AF600D46D9B103F084FC0228044601D1FFF747
S3150800AF70A3FF002318200A4A00FB03F18F18515C2F
S3150800AF80B14204D1BD60022C05D00020F8BD0133C2
S3150800AF900F2BF1D1F7E7FFF7A7FFF6E70120F5E753
S3150800AFA0841000202DE9F041837805467F33DBB213
S3150800AFB0102B09D9FFF780FFA978124813F04CF82F
S3150800AFC0BDE8F041FFF790BF0F4AD456FFF774FF6C
S3150800AFD0631CF1D018270D4E284607FB0468D8F8DD
S3150800AFE004309847D8F808300BB1284698477C4370
S3150800AFF033191B69002BE3D00C34301949F0F0FFE4
S3150800B000DEE700BF8A020708A002070884100020AE
S3150800B0102DE9F047002407460E462546DFF844800A
S3150800B020DFF84490DFF844A0A64204D8BDE8F0470C
S3150800B0300B4813F011B8731EA342395D06D150466A
S3150800B04013F00AF8132D06D1002505E0122D05D8B0
S3150800B050484613F001F801350134E5E74046EFE7C5
S3150800B0600C310708410307083803070830030708A7
S3150800B07013460A460168014812F0EEBF4A0307085C
S3150800B08038B50C4615460168044812F0E5FF29460E
S3150800B0902046BDE83840FFF7BBBF00BF640307087A
S3150800B0A0F8B5234F234E3A88C519BC1C52BAA54297
S3150800B0B093B2328101D80120F8BD013B042B29D86F
S3150800B0C0DFE803F003031F2A2E004FF480711A48A5
S3150800B0D0F4604AF01CF9431C2344BB42EBD39D425F
S3150800B0E0E9D9044420464FF4807134614AF00FF9D7
S3150800B0F001300444BC42DED3A5428CBF00200120A7
S3150800B100DAE77B885BBAB3810C4B9D42D3D9043806
S3150800B1103361B0820020CFE77B885BBAB381F9E759
S3150800B1207B885BBAB381054B9D42C4D93361F1E78D
S3150800B13047A40020C04C002049A400204BA40020AE
S3150800B14073B52D4D06462C89631E012B13D84FF473
S3150800B1508071E8684AF0DBF84FF480710446286984
S3150800B1604AF0D5F804440434A4B2A64213D2002403
S3150800B170204602B070BD032C01D1AC8AF3E7042C3B
S3150800B180F3D0052C06D14FF4807128694AF0BFF830
S3150800B190841CE9E700242B8918485ABA02805A1EEB
S3150800B1A0012A0CD82B69164A019300230093EB68F1
S3150800B1B0A11E023012F078FF0028D9DAD7E7032B50
S3150800B1C008D1AB89AA8A5BBA43802969043061F041
S3150800B1D0C0FBCDE7042B03D1AB895BBA4380C7E735
S3150800B1E0052BC5D1AB89074A5BBA4380211F2B695A
S3150800B1F0043012F059FFDFE7C04C002047A40020B6
S3150800B2006A0307082FF8080808B52C2101200C4AFC
S3150800B21003F0E0FC0B4B186030B94FF49C710A4BF5
S3150800B2200A4A0B4847F0EEFB00210A4A0A4803F08F
S3150800B2301BFC20B940F23B11084B044AF1E708BD54
S3150800B240A8050708EC4C00207103070851050708F4
S3150800B2508C030708C005070811B30008E4030708AC
S3150800B2602DE9F0410E4690461D460446069F10B944
S3150800B2700120BDE8F0810C4803F042FBA0610028DC
S3150800B280F6D00A4B0020002E08BF1E46084B266043
S3150800B290002D08BF1D46074BA4F80480002F08BFE1
S3150800B2A01F466562A762E4E798050708F6030708DC
S3150800B2B081B0000871B0000801884B1E042B19D80C
S3150800B2C0DFE803F003080C101400D0E901120A485D
S3150800B2D012F0C2BED0E901120848F9E782898188CE
S3150800B2E00748F5E78188074812F0B6BE8268818864
S3150800B2F00548EDE70548F7E7F903070834040708A2
S3150800B3006F040708A8040708D00407080E050708ED
S3150800B3102DE9F04F85B000238DF80F3049F0C9FCB0
S3150800B320B0B1904C6FF07F41A0694AF0B3F9DFF8ED
S3150800B33040828D484FF0FF33214600680DF10F0219
S3150800B3404AF07BFB054640B1642049F0B0FCF0E7C3
S3150800B3504FF47A7049F0ABFCE0E7B4F80890A069BE
S3150800B360B9F1010F40F0868049464AF05AF949F08A
S3150800B370A4FC421C06460CD1642049F098FC6FF0E8
S3150800B3807F41A0694AF086F90421A0694AF049F983
S3150800B390DAE7A188206849F0A9FC074630B93046A3
S3150800B3A049F089FC714812F057FEE8E74FF404703B
S3150800B3B0FFF7C6FE3B4602464146304649F082FC48
S3150800B3C0DFF8B0B1642049F072FC3B464FF40472D2
S3150800B3D04146304649F07FFC002807DC44F61F63E7
S3150800B3E005F1640A9A4524D85546EBE780B2FFF77B
S3150800B3F057FE82460028F1D12389032B20D1636AA0
S3150800B400B4F80C901BB12046A28A216998470423F8
S3150800B4104FF404702381A4F80C90FFF791FE3B4685
S3150800B42002464146304649F04DFCA38AB3F5007FF3
S3150800B430DAD2384649F074FC304649F03CFC9EE7BF
S3150800B440052BD1D1A36A1BB120462269A189984749
S3150800B45004234FF404702381A4F80C90FFF770FEC0
S3150800B4603B4602464146304649F02CFC5846FFF713
S3150800B47023FFB9E7B9F1020F81D149464AF0D1F85D
S3150800B48049F01BFC431C06463FF476AFA1882068AA
S3150800B49049F02CFC8146002881D04FF40470FFF750
S3150800B4A04FFE2F46AA4602464B464146304649F0CD
S3150800B4B009FCE369D4F820B000934FEA5B23013313
S3150800B4C09BB20193642049F0F2FB4B464FF4047299
S3150800B4D04146304649F0FFFB002807DC44F61F6367
S3150800B4E00AF1640A9A45EDD94846A3E780B2FFF700
S3150800B4F0D7FD0028F2D12389042B29D1BBF1000FEF
